{
    "contractName": "CrowdFundingWithDeadline",
    "abi": [
        {
            "inputs": [
                {
                    "internalType": "string",
                    "name": "contractName",
                    "type": "string"
                },
                {
                    "internalType": "uint256",
                    "name": "targetAmountEth",
                    "type": "uint256"
                },
                {
                    "internalType": "uint256",
                    "name": "durationInMin",
                    "type": "uint256"
                },
                {
                    "internalType": "address",
                    "name": "beneficiaryAddress",
                    "type": "address"
                }
            ],
            "stateMutability": "nonpayable",
            "type": "constructor"
        },
        {
            "inputs": [],
            "name": "beneficiary",
            "outputs": [
                {
                    "internalType": "address",
                    "name": "",
                    "type": "address"
                }
            ],
            "stateMutability": "view",
            "type": "function"
        },
        {
            "inputs": [],
            "name": "fundingDeadline",
            "outputs": [
                {
                    "internalType": "uint256",
                    "name": "",
                    "type": "uint256"
                }
            ],
            "stateMutability": "view",
            "type": "function"
        },
        {
            "inputs": [],
            "name": "name",
            "outputs": [
                {
                    "internalType": "string",
                    "name": "",
                    "type": "string"
                }
            ],
            "stateMutability": "view",
            "type": "function"
        },
        {
            "inputs": [],
            "name": "state",
            "outputs": [
                {
                    "internalType": "enum CrowdFundingWithDeadline.State",
                    "name": "",
                    "type": "uint8"
                }
            ],
            "stateMutability": "view",
            "type": "function"
        },
        {
            "inputs": [],
            "name": "targetAmount",
            "outputs": [
                {
                    "internalType": "uint256",
                    "name": "",
                    "type": "uint256"
                }
            ],
            "stateMutability": "view",
            "type": "function"
        }
    ],
    "bytecode": "608060405234801561001057600080fd5b5060405161053b38038061053b83398101604081905261002f9161013e565b8351610042906000906020870190610089565b50600183905561005382603c610246565b61005d904261022e565b600255600380546001600160a81b0319166001600160a01b0392909216919091179055506102cc915050565b82805461009590610265565b90600052602060002090601f0160209004810192826100b757600085556100fd565b82601f106100d057805160ff19168380011785556100fd565b828001600101855582156100fd579182015b828111156100fd5782518255916020019190600101906100e2565b5061010992915061010d565b5090565b5b80821115610109576000815560010161010e565b80516001600160a01b038116811461013957600080fd5b919050565b60008060008060808587031215610153578384fd5b84516001600160401b0380821115610169578586fd5b818701915087601f83011261017c578586fd5b81518181111561018e5761018e6102b6565b604051601f8201601f19908116603f011681019083821181831017156101b6576101b66102b6565b81604052828152602093508a848487010111156101d1578889fd5b8891505b828210156101f257848201840151818301850152908301906101d5565b8282111561020257888484830101525b80985050505080870151945050506040850151915061022360608601610122565b905092959194509250565b60008219821115610241576102416102a0565b500190565b6000816000190483118215151615610260576102606102a0565b500290565b600181811c9082168061027957607f821691505b6020821081141561029a57634e487b7160e01b600052602260045260246000fd5b50919050565b634e487b7160e01b600052601160045260246000fd5b634e487b7160e01b600052604160045260246000fd5b610260806102db6000396000f3fe608060405234801561001057600080fd5b50600436106100575760003560e01c806306fdde031461005c57806338af3eed1461007a578063796b23bb146100a5578063953b8fb8146100bc578063c19d93fb146100c5575b600080fd5b6100646100e6565b604051610071919061019c565b60405180910390f35b60035461008d906001600160a01b031681565b6040516001600160a01b039091168152602001610071565b6100ae60025481565b604051908152602001610071565b6100ae60015481565b6003546100d990600160a01b900460ff1681565b6040516100719190610174565b600080546100f3906101ef565b80601f016020809104026020016040519081016040528092919081815260200182805461011f906101ef565b801561016c5780601f106101415761010080835404028352916020019161016c565b820191906000526020600020905b81548152906001019060200180831161014f57829003601f168201915b505050505081565b602081016004831061019657634e487b7160e01b600052602160045260246000fd5b91905290565b6000602080835283518082850152825b818110156101c8578581018301518582016040015282016101ac565b818111156101d95783604083870101525b50601f01601f1916929092016040019392505050565b600181811c9082168061020357607f821691505b6020821081141561022457634e487b7160e01b600052602260045260246000fd5b5091905056fea2646970667358221220cbf19f5bf171be14e3f9c6d612ba38cc23e456dec1c051f352fa2f183ffc413c64736f6c63430008040033",
    "sourcePath": "c:/Users/Fauzi/Desktop/Projects/CrowdFunding/contracts/CrowdFunding.sol",
    "compiler": {
        "name": "solc",
        "version": "0.8.4+commit.c7e474f2"
    },
    "functionHashes": {
        "beneficiary()": "38af3eed",
        "fundingDeadline()": "796b23bb",
        "name()": "06fdde03",
        "state()": "c19d93fb",
        "targetAmount()": "953b8fb8"
    },
    "gasEstimates": {
        "creation": {
            "codeDepositCost": "121600",
            "executionCost": "infinite",
            "totalCost": "infinite"
        },
        "external": {
            "beneficiary()": "1037",
            "fundingDeadline()": "1017",
            "name()": "infinite",
            "state()": "1134",
            "targetAmount()": "1039"
        },
        "internal": {
            "currentTime()": "infinite"
        }
    }
}