{
  "contractName": "CrowdFundingWithDeadline",
  "abi": [
    {
      "inputs": [
        {
          "internalType": "string",
          "name": "campaignName",
          "type": "string"
        },
        {
          "internalType": "uint256",
          "name": "targetAmountEth",
          "type": "uint256"
        },
        {
          "internalType": "uint256",
          "name": "durationInMin",
          "type": "uint256"
        },
        {
          "internalType": "address payable",
          "name": "beneficiaryAddress",
          "type": "address"
        }
      ],
      "stateMutability": "nonpayable",
      "type": "constructor"
    },
    {
      "anonymous": false,
      "inputs": [
        {
          "indexed": false,
          "internalType": "address",
          "name": "addr",
          "type": "address"
        },
        {
          "indexed": false,
          "internalType": "uint256",
          "name": "totalCollected",
          "type": "uint256"
        },
        {
          "indexed": false,
          "internalType": "bool",
          "name": "succeeded",
          "type": "bool"
        }
      ],
      "name": "CampaignFinished",
      "type": "event"
    },
    {
      "inputs": [
        {
          "internalType": "address",
          "name": "",
          "type": "address"
        }
      ],
      "name": "amounts",
      "outputs": [
        {
          "internalType": "uint256",
          "name": "",
          "type": "uint256"
        }
      ],
      "stateMutability": "view",
      "type": "function"
    },
    {
      "inputs": [],
      "name": "beneficiary",
      "outputs": [
        {
          "internalType": "address payable",
          "name": "",
          "type": "address"
        }
      ],
      "stateMutability": "view",
      "type": "function"
    },
    {
      "inputs": [],
      "name": "collected",
      "outputs": [
        {
          "internalType": "bool",
          "name": "",
          "type": "bool"
        }
      ],
      "stateMutability": "view",
      "type": "function"
    },
    {
      "inputs": [],
      "name": "fundingDeadline",
      "outputs": [
        {
          "internalType": "uint256",
          "name": "",
          "type": "uint256"
        }
      ],
      "stateMutability": "view",
      "type": "function"
    },
    {
      "inputs": [],
      "name": "name",
      "outputs": [
        {
          "internalType": "string",
          "name": "",
          "type": "string"
        }
      ],
      "stateMutability": "view",
      "type": "function"
    },
    {
      "inputs": [],
      "name": "state",
      "outputs": [
        {
          "internalType": "enum CrowdFundingWithDeadline.State",
          "name": "",
          "type": "uint8"
        }
      ],
      "stateMutability": "view",
      "type": "function"
    },
    {
      "inputs": [],
      "name": "targetAmount",
      "outputs": [
        {
          "internalType": "uint256",
          "name": "",
          "type": "uint256"
        }
      ],
      "stateMutability": "view",
      "type": "function"
    },
    {
      "inputs": [],
      "name": "totalCollected",
      "outputs": [
        {
          "internalType": "uint256",
          "name": "",
          "type": "uint256"
        }
      ],
      "stateMutability": "view",
      "type": "function"
    },
    {
      "inputs": [],
      "name": "contribute",
      "outputs": [],
      "stateMutability": "payable",
      "type": "function"
    },
    {
      "inputs": [],
      "name": "finishCrowdFunding",
      "outputs": [],
      "stateMutability": "nonpayable",
      "type": "function"
    },
    {
      "inputs": [],
      "name": "collect",
      "outputs": [],
      "stateMutability": "nonpayable",
      "type": "function"
    },
    {
      "inputs": [],
      "name": "withdraw",
      "outputs": [],
      "stateMutability": "nonpayable",
      "type": "function"
    },
    {
      "inputs": [],
      "name": "beforeDeadline",
      "outputs": [
        {
          "internalType": "bool",
          "name": "",
          "type": "bool"
        }
      ],
      "stateMutability": "view",
      "type": "function"
    }
  ],
  "bytecode": "0x60806040523480156200001157600080fd5b5060405162001719380380620017198339818101604052810190620000379190620002d7565b83600390805190602001906200004f92919062000187565b508260048190555073__Utils_________________________________63529b380f836040518263ffffffff1660e01b815260040162000090919062000399565b60206040518083038186803b158015620000a957600080fd5b505af4158015620000be573d6000803e3d6000fd5b505050506040513d601f19601f82011682018060405250810190620000e491906200035c565b60058190555080600660006101000a81548173ffffffffffffffffffffffffffffffffffffffff021916908373ffffffffffffffffffffffffffffffffffffffff1602179055506000600660146101000a81548160ff0219169083600381111562000178577f4e487b7100000000000000000000000000000000000000000000000000000000600052602160045260246000fd5b02179055505050505062000598565b828054620001959062000489565b90600052602060002090601f016020900481019282620001b9576000855562000205565b82601f10620001d457805160ff191683800117855562000205565b8280016001018555821562000205579182015b8281111562000204578251825591602001919060010190620001e7565b5b50905062000214919062000218565b5090565b5b808211156200023357600081600090555060010162000219565b5090565b60006200024e6200024884620003df565b620003b6565b9050828152602081018484840111156200026757600080fd5b6200027484828562000453565b509392505050565b6000815190506200028d8162000564565b92915050565b600082601f830112620002a557600080fd5b8151620002b784826020860162000237565b91505092915050565b600081519050620002d1816200057e565b92915050565b60008060008060808587031215620002ee57600080fd5b600085015167ffffffffffffffff8111156200030957600080fd5b620003178782880162000293565b94505060206200032a87828801620002c0565b93505060406200033d87828801620002c0565b925050606062000350878288016200027c565b91505092959194509250565b6000602082840312156200036f57600080fd5b60006200037f84828501620002c0565b91505092915050565b620003938162000449565b82525050565b6000602082019050620003b0600083018462000388565b92915050565b6000620003c2620003d5565b9050620003d08282620004bf565b919050565b6000604051905090565b600067ffffffffffffffff821115620003fd57620003fc62000524565b5b620004088262000553565b9050602081019050919050565b6000620004228262000429565b9050919050565b600073ffffffffffffffffffffffffffffffffffffffff82169050919050565b6000819050919050565b60005b838110156200047357808201518184015260208101905062000456565b8381111562000483576000848401525b50505050565b60006002820490506001821680620004a257607f821691505b60208210811415620004b957620004b8620004f5565b5b50919050565b620004ca8262000553565b810181811067ffffffffffffffff82111715620004ec57620004eb62000524565b5b80604052505050565b7f4e487b7100000000000000000000000000000000000000000000000000000000600052602260045260246000fd5b7f4e487b7100000000000000000000000000000000000000000000000000000000600052604160045260246000fd5b6000601f19601f8301169050919050565b6200056f8162000415565b81146200057b57600080fd5b50565b620005898162000449565b81146200059557600080fd5b50565b61117180620005a86000396000f3fe6080604052600436106100c25760003560e01c8063796b23bb1161007f578063c19d93fb11610059578063c19d93fb14610234578063d7bb99ba1461025f578063e29eb83614610269578063e522538114610294576100c2565b8063796b23bb146101b357806384bcefd4146101de578063953b8fb814610209576100c2565b806306fdde03146100c7578063083dca11146100f257806338af3eed146101095780633ccfd60b1461013457806355a3b2c11461014b57806368bc004114610188575b600080fd5b3480156100d357600080fd5b506100dc6102ab565b6040516100e99190610d6f565b60405180910390f35b3480156100fe57600080fd5b50610107610339565b005b34801561011557600080fd5b5061011e61054f565b60405161012b9190610ce7565b60405180910390f35b34801561014057600080fd5b50610149610575565b005b34801561015757600080fd5b50610172600480360381019061016d9190610bae565b6107c1565b60405161017f9190610e11565b60405180910390f35b34801561019457600080fd5b5061019d6107d9565b6040516101aa9190610d39565b60405180910390f35b3480156101bf57600080fd5b506101c86107ec565b6040516101d59190610e11565b60405180910390f35b3480156101ea57600080fd5b506101f36107f2565b6040516102009190610d39565b60405180910390f35b34801561021557600080fd5b5061021e610805565b60405161022b9190610e11565b60405180910390f35b34801561024057600080fd5b5061024961080b565b6040516102569190610d54565b60405180910390f35b61026761081e565b005b34801561027557600080fd5b5061027e6109bf565b60405161028b9190610e11565b60405180910390f35b3480156102a057600080fd5b506102a96109c5565b005b600380546102b890610f50565b80601f01602080910402602001604051908101604052809291908181526020018280546102e490610f50565b80156103315780601f1061030657610100808354040283529160200191610331565b820191906000526020600020905b81548152906001019060200180831161031457829003601f168201915b505050505081565b6000806003811115610374577f4e487b7100000000000000000000000000000000000000000000000000000000600052602160045260246000fd5b600660149054906101000a900460ff1660038111156103bc577f4e487b7100000000000000000000000000000000000000000000000000000000600052602160045260246000fd5b146103fc576040517f08c379a00000000000000000000000000000000000000000000000000000000081526004016103f390610d91565b60405180910390fd5b6104046107d9565b15610444576040517f08c379a000000000000000000000000000000000000000000000000000000000815260040161043b90610df1565b60405180910390fd5b600160009054906101000a900460ff166104ae576001600660146101000a81548160ff021916908360038111156104a4577f4e487b7100000000000000000000000000000000000000000000000000000000600052602160045260246000fd5b0217905550610500565b6002600660146101000a81548160ff021916908360038111156104fa577f4e487b7100000000000000000000000000000000000000000000000000000000600052602160045260246000fd5b02179055505b7f6fa7e87ebbd87ed4f1c40bba63144f68fd2bb022fb748ab3b61b5411c39bd47430600254600160009054906101000a900460ff1660405161054493929190610d02565b60405180910390a150565b600660009054906101000a900473ffffffffffffffffffffffffffffffffffffffff1681565b60018060038111156105b0577f4e487b7100000000000000000000000000000000000000000000000000000000600052602160045260246000fd5b600660149054906101000a900460ff1660038111156105f8577f4e487b7100000000000000000000000000000000000000000000000000000000600052602160045260246000fd5b14610638576040517f08c379a000000000000000000000000000000000000000000000000000000000815260040161062f90610d91565b60405180910390fd5b60008060003373ffffffffffffffffffffffffffffffffffffffff1673ffffffffffffffffffffffffffffffffffffffff16815260200190815260200160002054116106b9576040517f08c379a00000000000000000000000000000000000000000000000000000000081526004016106b090610dd1565b60405180910390fd5b60008060003373ffffffffffffffffffffffffffffffffffffffff1673ffffffffffffffffffffffffffffffffffffffff16815260200190815260200160002054905060008060003373ffffffffffffffffffffffffffffffffffffffff1673ffffffffffffffffffffffffffffffffffffffff168152602001908152602001600020819055503373ffffffffffffffffffffffffffffffffffffffff166108fc829081150290604051600060405180830381858888f193505050506107bd57806000803373ffffffffffffffffffffffffffffffffffffffff1673ffffffffffffffffffffffffffffffffffffffff168152602001908152602001600020819055505b5050565b60006020528060005260406000206000915090505481565b60006005546107e6610b91565b10905090565b60055481565b600160009054906101000a900460ff1681565b60045481565b600660149054906101000a900460ff1681565b6000806003811115610859577f4e487b7100000000000000000000000000000000000000000000000000000000600052602160045260246000fd5b600660149054906101000a900460ff1660038111156108a1577f4e487b7100000000000000000000000000000000000000000000000000000000600052602160045260246000fd5b146108e1576040517f08c379a00000000000000000000000000000000000000000000000000000000081526004016108d890610d91565b60405180910390fd5b6108e96107d9565b610928576040517f08c379a000000000000000000000000000000000000000000000000000000000815260040161091f90610db1565b60405180910390fd5b346000803373ffffffffffffffffffffffffffffffffffffffff1673ffffffffffffffffffffffffffffffffffffffff16815260200190815260200160002060008282546109769190610e48565b92505081905550346002600082825461098f9190610e48565b92505081905550600454600254106109bc5760018060006101000a81548160ff0219169083151502179055505b50565b60025481565b6002806003811115610a00577f4e487b7100000000000000000000000000000000000000000000000000000000600052602160045260246000fd5b600660149054906101000a900460ff166003811115610a48577f4e487b7100000000000000000000000000000000000000000000000000000000600052602160045260246000fd5b14610a88576040517f08c379a0000000000000000000000000000000000000000000000000000000008152600401610a7f90610d91565b60405180910390fd5b600660009054906101000a900473ffffffffffffffffffffffffffffffffffffffff1673ffffffffffffffffffffffffffffffffffffffff166108fc6002549081150290604051600060405180830381858888f1935050505015610b3c576003600660146101000a81548160ff02191690836003811115610b32577f4e487b7100000000000000000000000000000000000000000000000000000000600052602160045260246000fd5b0217905550610b8e565b6001600660146101000a81548160ff02191690836003811115610b88577f4e487b7100000000000000000000000000000000000000000000000000000000600052602160045260246000fd5b02179055505b50565b600042905090565b600081359050610ba881611124565b92915050565b600060208284031215610bc057600080fd5b6000610bce84828501610b99565b91505092915050565b610be081610eb0565b82525050565b610bef81610e9e565b82525050565b610bfe81610ec2565b82525050565b610c0d81610f0b565b82525050565b6000610c1e82610e2c565b610c288185610e37565b9350610c38818560208601610f1d565b610c418161100f565b840191505092915050565b6000610c59600d83610e37565b9150610c6482611020565b602082019050919050565b6000610c7c602383610e37565b9150610c8782611049565b604082019050919050565b6000610c9f601783610e37565b9150610caa82611098565b602082019050919050565b6000610cc2602883610e37565b9150610ccd826110c1565b604082019050919050565b610ce181610f01565b82525050565b6000602082019050610cfc6000830184610bd7565b92915050565b6000606082019050610d176000830186610be6565b610d246020830185610cd8565b610d316040830184610bf5565b949350505050565b6000602082019050610d4e6000830184610bf5565b92915050565b6000602082019050610d696000830184610c04565b92915050565b60006020820190508181036000830152610d898184610c13565b905092915050565b60006020820190508181036000830152610daa81610c4c565b9050919050565b60006020820190508181036000830152610dca81610c6f565b9050919050565b60006020820190508181036000830152610dea81610c92565b9050919050565b60006020820190508181036000830152610e0a81610cb5565b9050919050565b6000602082019050610e266000830184610cd8565b92915050565b600081519050919050565b600082825260208201905092915050565b6000610e5382610f01565b9150610e5e83610f01565b9250827fffffffffffffffffffffffffffffffffffffffffffffffffffffffffffffffff03821115610e9357610e92610f82565b5b828201905092915050565b6000610ea982610ee1565b9050919050565b6000610ebb82610ee1565b9050919050565b60008115159050919050565b6000819050610edc82611110565b919050565b600073ffffffffffffffffffffffffffffffffffffffff82169050919050565b6000819050919050565b6000610f1682610ece565b9050919050565b60005b83811015610f3b578082015181840152602081019050610f20565b83811115610f4a576000848401525b50505050565b60006002820490506001821680610f6857607f821691505b60208210811415610f7c57610f7b610fe0565b5b50919050565b7f4e487b7100000000000000000000000000000000000000000000000000000000600052601160045260246000fd5b7f4e487b7100000000000000000000000000000000000000000000000000000000600052602160045260246000fd5b7f4e487b7100000000000000000000000000000000000000000000000000000000600052602260045260246000fd5b6000601f19601f8301169050919050565b7f496e76616c696420737461746500000000000000000000000000000000000000600082015250565b7f4e6f20636f6e747269627574696f6e732061667465722074686520646561646c60008201527f696e650000000000000000000000000000000000000000000000000000000000602082015250565b7f4e6f7468696e672077617320636f6e7472696275746564000000000000000000600082015250565b7f43616e6e6f742066696e6973682063616d706169676e206265666f726520612060008201527f646561646c696e65000000000000000000000000000000000000000000000000602082015250565b6004811061112157611120610fb1565b5b50565b61112d81610e9e565b811461113857600080fd5b5056fea2646970667358221220ea57adca77638388ebc308fe9f20eb80171ba8ca1a84c0df3ca3c5741b6feb2964736f6c63430008040033",
  "deployedBytecode": "0x6080604052600436106100c25760003560e01c8063796b23bb1161007f578063c19d93fb11610059578063c19d93fb14610234578063d7bb99ba1461025f578063e29eb83614610269578063e522538114610294576100c2565b8063796b23bb146101b357806384bcefd4146101de578063953b8fb814610209576100c2565b806306fdde03146100c7578063083dca11146100f257806338af3eed146101095780633ccfd60b1461013457806355a3b2c11461014b57806368bc004114610188575b600080fd5b3480156100d357600080fd5b506100dc6102ab565b6040516100e99190610d6f565b60405180910390f35b3480156100fe57600080fd5b50610107610339565b005b34801561011557600080fd5b5061011e61054f565b60405161012b9190610ce7565b60405180910390f35b34801561014057600080fd5b50610149610575565b005b34801561015757600080fd5b50610172600480360381019061016d9190610bae565b6107c1565b60405161017f9190610e11565b60405180910390f35b34801561019457600080fd5b5061019d6107d9565b6040516101aa9190610d39565b60405180910390f35b3480156101bf57600080fd5b506101c86107ec565b6040516101d59190610e11565b60405180910390f35b3480156101ea57600080fd5b506101f36107f2565b6040516102009190610d39565b60405180910390f35b34801561021557600080fd5b5061021e610805565b60405161022b9190610e11565b60405180910390f35b34801561024057600080fd5b5061024961080b565b6040516102569190610d54565b60405180910390f35b61026761081e565b005b34801561027557600080fd5b5061027e6109bf565b60405161028b9190610e11565b60405180910390f35b3480156102a057600080fd5b506102a96109c5565b005b600380546102b890610f50565b80601f01602080910402602001604051908101604052809291908181526020018280546102e490610f50565b80156103315780601f1061030657610100808354040283529160200191610331565b820191906000526020600020905b81548152906001019060200180831161031457829003601f168201915b505050505081565b6000806003811115610374577f4e487b7100000000000000000000000000000000000000000000000000000000600052602160045260246000fd5b600660149054906101000a900460ff1660038111156103bc577f4e487b7100000000000000000000000000000000000000000000000000000000600052602160045260246000fd5b146103fc576040517f08c379a00000000000000000000000000000000000000000000000000000000081526004016103f390610d91565b60405180910390fd5b6104046107d9565b15610444576040517f08c379a000000000000000000000000000000000000000000000000000000000815260040161043b90610df1565b60405180910390fd5b600160009054906101000a900460ff166104ae576001600660146101000a81548160ff021916908360038111156104a4577f4e487b7100000000000000000000000000000000000000000000000000000000600052602160045260246000fd5b0217905550610500565b6002600660146101000a81548160ff021916908360038111156104fa577f4e487b7100000000000000000000000000000000000000000000000000000000600052602160045260246000fd5b02179055505b7f6fa7e87ebbd87ed4f1c40bba63144f68fd2bb022fb748ab3b61b5411c39bd47430600254600160009054906101000a900460ff1660405161054493929190610d02565b60405180910390a150565b600660009054906101000a900473ffffffffffffffffffffffffffffffffffffffff1681565b60018060038111156105b0577f4e487b7100000000000000000000000000000000000000000000000000000000600052602160045260246000fd5b600660149054906101000a900460ff1660038111156105f8577f4e487b7100000000000000000000000000000000000000000000000000000000600052602160045260246000fd5b14610638576040517f08c379a000000000000000000000000000000000000000000000000000000000815260040161062f90610d91565b60405180910390fd5b60008060003373ffffffffffffffffffffffffffffffffffffffff1673ffffffffffffffffffffffffffffffffffffffff16815260200190815260200160002054116106b9576040517f08c379a00000000000000000000000000000000000000000000000000000000081526004016106b090610dd1565b60405180910390fd5b60008060003373ffffffffffffffffffffffffffffffffffffffff1673ffffffffffffffffffffffffffffffffffffffff16815260200190815260200160002054905060008060003373ffffffffffffffffffffffffffffffffffffffff1673ffffffffffffffffffffffffffffffffffffffff168152602001908152602001600020819055503373ffffffffffffffffffffffffffffffffffffffff166108fc829081150290604051600060405180830381858888f193505050506107bd57806000803373ffffffffffffffffffffffffffffffffffffffff1673ffffffffffffffffffffffffffffffffffffffff168152602001908152602001600020819055505b5050565b60006020528060005260406000206000915090505481565b60006005546107e6610b91565b10905090565b60055481565b600160009054906101000a900460ff1681565b60045481565b600660149054906101000a900460ff1681565b6000806003811115610859577f4e487b7100000000000000000000000000000000000000000000000000000000600052602160045260246000fd5b600660149054906101000a900460ff1660038111156108a1577f4e487b7100000000000000000000000000000000000000000000000000000000600052602160045260246000fd5b146108e1576040517f08c379a00000000000000000000000000000000000000000000000000000000081526004016108d890610d91565b60405180910390fd5b6108e96107d9565b610928576040517f08c379a000000000000000000000000000000000000000000000000000000000815260040161091f90610db1565b60405180910390fd5b346000803373ffffffffffffffffffffffffffffffffffffffff1673ffffffffffffffffffffffffffffffffffffffff16815260200190815260200160002060008282546109769190610e48565b92505081905550346002600082825461098f9190610e48565b92505081905550600454600254106109bc5760018060006101000a81548160ff0219169083151502179055505b50565b60025481565b6002806003811115610a00577f4e487b7100000000000000000000000000000000000000000000000000000000600052602160045260246000fd5b600660149054906101000a900460ff166003811115610a48577f4e487b7100000000000000000000000000000000000000000000000000000000600052602160045260246000fd5b14610a88576040517f08c379a0000000000000000000000000000000000000000000000000000000008152600401610a7f90610d91565b60405180910390fd5b600660009054906101000a900473ffffffffffffffffffffffffffffffffffffffff1673ffffffffffffffffffffffffffffffffffffffff166108fc6002549081150290604051600060405180830381858888f1935050505015610b3c576003600660146101000a81548160ff02191690836003811115610b32577f4e487b7100000000000000000000000000000000000000000000000000000000600052602160045260246000fd5b0217905550610b8e565b6001600660146101000a81548160ff02191690836003811115610b88577f4e487b7100000000000000000000000000000000000000000000000000000000600052602160045260246000fd5b02179055505b50565b600042905090565b600081359050610ba881611124565b92915050565b600060208284031215610bc057600080fd5b6000610bce84828501610b99565b91505092915050565b610be081610eb0565b82525050565b610bef81610e9e565b82525050565b610bfe81610ec2565b82525050565b610c0d81610f0b565b82525050565b6000610c1e82610e2c565b610c288185610e37565b9350610c38818560208601610f1d565b610c418161100f565b840191505092915050565b6000610c59600d83610e37565b9150610c6482611020565b602082019050919050565b6000610c7c602383610e37565b9150610c8782611049565b604082019050919050565b6000610c9f601783610e37565b9150610caa82611098565b602082019050919050565b6000610cc2602883610e37565b9150610ccd826110c1565b604082019050919050565b610ce181610f01565b82525050565b6000602082019050610cfc6000830184610bd7565b92915050565b6000606082019050610d176000830186610be6565b610d246020830185610cd8565b610d316040830184610bf5565b949350505050565b6000602082019050610d4e6000830184610bf5565b92915050565b6000602082019050610d696000830184610c04565b92915050565b60006020820190508181036000830152610d898184610c13565b905092915050565b60006020820190508181036000830152610daa81610c4c565b9050919050565b60006020820190508181036000830152610dca81610c6f565b9050919050565b60006020820190508181036000830152610dea81610c92565b9050919050565b60006020820190508181036000830152610e0a81610cb5565b9050919050565b6000602082019050610e266000830184610cd8565b92915050565b600081519050919050565b600082825260208201905092915050565b6000610e5382610f01565b9150610e5e83610f01565b9250827fffffffffffffffffffffffffffffffffffffffffffffffffffffffffffffffff03821115610e9357610e92610f82565b5b828201905092915050565b6000610ea982610ee1565b9050919050565b6000610ebb82610ee1565b9050919050565b60008115159050919050565b6000819050610edc82611110565b919050565b600073ffffffffffffffffffffffffffffffffffffffff82169050919050565b6000819050919050565b6000610f1682610ece565b9050919050565b60005b83811015610f3b578082015181840152602081019050610f20565b83811115610f4a576000848401525b50505050565b60006002820490506001821680610f6857607f821691505b60208210811415610f7c57610f7b610fe0565b5b50919050565b7f4e487b7100000000000000000000000000000000000000000000000000000000600052601160045260246000fd5b7f4e487b7100000000000000000000000000000000000000000000000000000000600052602160045260246000fd5b7f4e487b7100000000000000000000000000000000000000000000000000000000600052602260045260246000fd5b6000601f19601f8301169050919050565b7f496e76616c696420737461746500000000000000000000000000000000000000600082015250565b7f4e6f20636f6e747269627574696f6e732061667465722074686520646561646c60008201527f696e650000000000000000000000000000000000000000000000000000000000602082015250565b7f4e6f7468696e672077617320636f6e7472696275746564000000000000000000600082015250565b7f43616e6e6f742066696e6973682063616d706169676e206265666f726520612060008201527f646561646c696e65000000000000000000000000000000000000000000000000602082015250565b6004811061112157611120610fb1565b5b50565b61112d81610e9e565b811461113857600080fd5b5056fea2646970667358221220ea57adca77638388ebc308fe9f20eb80171ba8ca1a84c0df3ca3c5741b6feb2964736f6c63430008040033",
  "immutableReferences": {},
  "source": "// SPDX-License-Identifier: MIT\r\npragma solidity >=0.4.22 <0.9.0;\r\n\r\nimport \"./Utils.sol\";\r\n\r\ncontract CrowdFundingWithDeadline {\r\n\r\n    using Utils for *;\r\n\r\n    enum State { Ongoing, Failed, Succeeded, PaidOut }\r\n\r\n    event CampaignFinished(\r\n        address addr,\r\n        uint totalCollected,\r\n        bool succeeded\r\n    );\r\n\r\n    mapping(address => uint) public amounts;\r\n    bool public collected;\r\n    uint public totalCollected;\r\n    string public name;\r\n    uint public targetAmount;\r\n    uint public fundingDeadline;\r\n    address payable public beneficiary;\r\n    State public state;\r\n\r\n    modifier inState(State expectedState) {\r\n        require(state == expectedState, \"Invalid state\");\r\n        _;\r\n    }\r\n\r\n    constructor (string memory campaignName, uint targetAmountEth, uint durationInMin, address payable beneficiaryAddress) public {\r\n        name = campaignName;\r\n        targetAmount = targetAmountEth;\r\n        fundingDeadline = Utils.minutesToSeconds(durationInMin);\r\n        beneficiary = beneficiaryAddress;\r\n        state = State.Ongoing;\r\n    }\r\n\r\n    function contribute() public payable inState(State.Ongoing) {\r\n        \r\n        require(beforeDeadline(), \"No contributions after the deadline\");\r\n\r\n        amounts[msg.sender] += msg.value;\r\n        totalCollected += msg.value;\r\n\r\n        if (totalCollected >= targetAmount) {\r\n            collected = true;\r\n        }\r\n    }\r\n\r\n    function finishCrowdFunding() public inState(State.Ongoing) {\r\n        require(!beforeDeadline(), \"Cannot finish campaign before a deadline\");\r\n\r\n        if (!collected) {\r\n            state = State.Failed;\r\n        } else {\r\n            state = State.Succeeded;\r\n        }\r\n\r\n        emit CampaignFinished(address(this), totalCollected, collected);\r\n    }\r\n\r\n    function collect() public inState(State.Succeeded) {\r\n        if (beneficiary.send(totalCollected)) {\r\n            state = State.PaidOut;\r\n        } else {\r\n            state = State.Failed;\r\n        }\r\n    }\r\n\r\n    function withdraw() public inState(State.Failed) {\r\n        require(amounts[msg.sender] > 0, \"Nothing was contributed\");\r\n        uint contributed = amounts[msg.sender];\r\n        amounts[msg.sender] = 0;\r\n\r\n        if (!payable(msg.sender).send(contributed)) {\r\n            amounts[msg.sender] = contributed;\r\n        }\r\n    }\r\n\r\n    function beforeDeadline() public view returns(bool) {\r\n        return currentTime() < fundingDeadline;\r\n    }\r\n\r\n    function currentTime() virtual internal view returns(uint) {\r\n        return block.timestamp;\r\n    }\r\n\r\n}",
  "sourcePath": "C:\\Users\\Fauzi\\Desktop\\Projects\\CrowdFunding\\contracts\\CrowdFunding.sol",
  "compiler": {
    "name": "solc",
    "version": "0.8.4+commit.c7e474f2.Emscripten.clang"
  },
  "schemaVersion": "3.4.1",
  "updatedAt": "2021-05-26T21:31:35.308Z",
  "devdoc": {
    "kind": "dev",
    "methods": {},
    "version": 1
  },
  "userdoc": {
    "kind": "user",
    "methods": {},
    "version": 1
  }
}