{
  "contractName": "TestCrowdFundingWithDeadline",
  "abi": [
    {
      "inputs": [
        {
          "internalType": "string",
          "name": "contractName",
          "type": "string"
        },
        {
          "internalType": "uint256",
          "name": "targetAmountEth",
          "type": "uint256"
        },
        {
          "internalType": "uint256",
          "name": "durationInMin",
          "type": "uint256"
        },
        {
          "internalType": "address payable",
          "name": "beneficiaryAddress",
          "type": "address"
        }
      ],
      "stateMutability": "nonpayable",
      "type": "constructor"
    },
    {
      "anonymous": false,
      "inputs": [
        {
          "indexed": false,
          "internalType": "address",
          "name": "addr",
          "type": "address"
        },
        {
          "indexed": false,
          "internalType": "uint256",
          "name": "totalCollected",
          "type": "uint256"
        },
        {
          "indexed": false,
          "internalType": "bool",
          "name": "succeeded",
          "type": "bool"
        }
      ],
      "name": "CampaignFinished",
      "type": "event"
    },
    {
      "inputs": [
        {
          "internalType": "address",
          "name": "",
          "type": "address"
        }
      ],
      "name": "amounts",
      "outputs": [
        {
          "internalType": "uint256",
          "name": "",
          "type": "uint256"
        }
      ],
      "stateMutability": "view",
      "type": "function"
    },
    {
      "inputs": [],
      "name": "beforeDeadline",
      "outputs": [
        {
          "internalType": "bool",
          "name": "",
          "type": "bool"
        }
      ],
      "stateMutability": "view",
      "type": "function"
    },
    {
      "inputs": [],
      "name": "beneficiary",
      "outputs": [
        {
          "internalType": "address payable",
          "name": "",
          "type": "address"
        }
      ],
      "stateMutability": "view",
      "type": "function"
    },
    {
      "inputs": [],
      "name": "collect",
      "outputs": [],
      "stateMutability": "nonpayable",
      "type": "function"
    },
    {
      "inputs": [],
      "name": "collected",
      "outputs": [
        {
          "internalType": "bool",
          "name": "",
          "type": "bool"
        }
      ],
      "stateMutability": "view",
      "type": "function"
    },
    {
      "inputs": [],
      "name": "contribute",
      "outputs": [],
      "stateMutability": "payable",
      "type": "function"
    },
    {
      "inputs": [],
      "name": "finishCrowdFunding",
      "outputs": [],
      "stateMutability": "nonpayable",
      "type": "function"
    },
    {
      "inputs": [],
      "name": "fundingDeadline",
      "outputs": [
        {
          "internalType": "uint256",
          "name": "",
          "type": "uint256"
        }
      ],
      "stateMutability": "view",
      "type": "function"
    },
    {
      "inputs": [],
      "name": "name",
      "outputs": [
        {
          "internalType": "string",
          "name": "",
          "type": "string"
        }
      ],
      "stateMutability": "view",
      "type": "function"
    },
    {
      "inputs": [],
      "name": "state",
      "outputs": [
        {
          "internalType": "enum CrowdFundingWithDeadline.State",
          "name": "",
          "type": "uint8"
        }
      ],
      "stateMutability": "view",
      "type": "function"
    },
    {
      "inputs": [],
      "name": "targetAmount",
      "outputs": [
        {
          "internalType": "uint256",
          "name": "",
          "type": "uint256"
        }
      ],
      "stateMutability": "view",
      "type": "function"
    },
    {
      "inputs": [],
      "name": "totalCollected",
      "outputs": [
        {
          "internalType": "uint256",
          "name": "",
          "type": "uint256"
        }
      ],
      "stateMutability": "view",
      "type": "function"
    },
    {
      "inputs": [],
      "name": "withdraw",
      "outputs": [],
      "stateMutability": "nonpayable",
      "type": "function"
    },
    {
      "inputs": [
        {
          "internalType": "uint256",
          "name": "newTime",
          "type": "uint256"
        }
      ],
      "name": "setCurrentTime",
      "outputs": [],
      "stateMutability": "nonpayable",
      "type": "function"
    }
  ],
  "bytecode": "0x60806040523480156200001157600080fd5b50604051620017c6380380620017c68339818101604052810190620000379190620002df565b838383838360039080519060200190620000539291906200018f565b508260048190555073__Utils_________________________________63529b380f836040518263ffffffff1660e01b8152600401620000949190620003a1565b60206040518083038186803b158015620000ad57600080fd5b505af4158015620000c2573d6000803e3d6000fd5b505050506040513d601f19601f82011682018060405250810190620000e8919062000364565b60058190555080600660006101000a81548173ffffffffffffffffffffffffffffffffffffffff021916908373ffffffffffffffffffffffffffffffffffffffff1602179055506000600660146101000a81548160ff021916908360038111156200017c577f4e487b7100000000000000000000000000000000000000000000000000000000600052602160045260246000fd5b02179055505050505050505050620005a0565b8280546200019d9062000491565b90600052602060002090601f016020900481019282620001c157600085556200020d565b82601f10620001dc57805160ff19168380011785556200020d565b828001600101855582156200020d579182015b828111156200020c578251825591602001919060010190620001ef565b5b5090506200021c919062000220565b5090565b5b808211156200023b57600081600090555060010162000221565b5090565b6000620002566200025084620003e7565b620003be565b9050828152602081018484840111156200026f57600080fd5b6200027c8482856200045b565b509392505050565b60008151905062000295816200056c565b92915050565b600082601f830112620002ad57600080fd5b8151620002bf8482602086016200023f565b91505092915050565b600081519050620002d98162000586565b92915050565b60008060008060808587031215620002f657600080fd5b600085015167ffffffffffffffff8111156200031157600080fd5b6200031f878288016200029b565b94505060206200033287828801620002c8565b93505060406200034587828801620002c8565b9250506060620003588782880162000284565b91505092959194509250565b6000602082840312156200037757600080fd5b60006200038784828501620002c8565b91505092915050565b6200039b8162000451565b82525050565b6000602082019050620003b8600083018462000390565b92915050565b6000620003ca620003dd565b9050620003d88282620004c7565b919050565b6000604051905090565b600067ffffffffffffffff8211156200040557620004046200052c565b5b62000410826200055b565b9050602081019050919050565b60006200042a8262000431565b9050919050565b600073ffffffffffffffffffffffffffffffffffffffff82169050919050565b6000819050919050565b60005b838110156200047b5780820151818401526020810190506200045e565b838111156200048b576000848401525b50505050565b60006002820490506001821680620004aa57607f821691505b60208210811415620004c157620004c0620004fd565b5b50919050565b620004d2826200055b565b810181811067ffffffffffffffff82111715620004f457620004f36200052c565b5b80604052505050565b7f4e487b7100000000000000000000000000000000000000000000000000000000600052602260045260246000fd5b7f4e487b7100000000000000000000000000000000000000000000000000000000600052604160045260246000fd5b6000601f19601f8301169050919050565b62000577816200041d565b81146200058357600080fd5b50565b620005918162000451565b81146200059d57600080fd5b50565b61121680620005b06000396000f3fe6080604052600436106100dd5760003560e01c8063796b23bb1161007f578063c19d93fb11610059578063c19d93fb14610278578063d7bb99ba146102a3578063e29eb836146102ad578063e5225381146102d8576100dd565b8063796b23bb146101f757806384bcefd414610222578063953b8fb81461024d576100dd565b806338af3eed116100bb57806338af3eed1461014d5780633ccfd60b1461017857806355a3b2c11461018f57806368bc0041146101cc576100dd565b806306fdde03146100e2578063083dca111461010d57806322f8e56614610124575b600080fd5b3480156100ee57600080fd5b506100f76102ef565b6040516101049190610dfd565b60405180910390f35b34801561011957600080fd5b5061012261037d565b005b34801561013057600080fd5b5061014b60048036038101906101469190610c3c565b610593565b005b34801561015957600080fd5b5061016261059d565b60405161016f9190610d75565b60405180910390f35b34801561018457600080fd5b5061018d6105c3565b005b34801561019b57600080fd5b506101b660048036038101906101b19190610c13565b61080f565b6040516101c39190610e9f565b60405180910390f35b3480156101d857600080fd5b506101e1610827565b6040516101ee9190610dc7565b60405180910390f35b34801561020357600080fd5b5061020c61083a565b6040516102199190610e9f565b60405180910390f35b34801561022e57600080fd5b50610237610840565b6040516102449190610dc7565b60405180910390f35b34801561025957600080fd5b50610262610853565b60405161026f9190610e9f565b60405180910390f35b34801561028457600080fd5b5061028d610859565b60405161029a9190610de2565b60405180910390f35b6102ab61086c565b005b3480156102b957600080fd5b506102c2610a0d565b6040516102cf9190610e9f565b60405180910390f35b3480156102e457600080fd5b506102ed610a13565b005b600380546102fc90610fde565b80601f016020809104026020016040519081016040528092919081815260200182805461032890610fde565b80156103755780601f1061034a57610100808354040283529160200191610375565b820191906000526020600020905b81548152906001019060200180831161035857829003601f168201915b505050505081565b60008060038111156103b8577f4e487b7100000000000000000000000000000000000000000000000000000000600052602160045260246000fd5b600660149054906101000a900460ff166003811115610400577f4e487b7100000000000000000000000000000000000000000000000000000000600052602160045260246000fd5b14610440576040517f08c379a000000000000000000000000000000000000000000000000000000000815260040161043790610e1f565b60405180910390fd5b610448610827565b15610488576040517f08c379a000000000000000000000000000000000000000000000000000000000815260040161047f90610e7f565b60405180910390fd5b600160009054906101000a900460ff166104f2576001600660146101000a81548160ff021916908360038111156104e8577f4e487b7100000000000000000000000000000000000000000000000000000000600052602160045260246000fd5b0217905550610544565b6002600660146101000a81548160ff0219169083600381111561053e577f4e487b7100000000000000000000000000000000000000000000000000000000600052602160045260246000fd5b02179055505b7f6fa7e87ebbd87ed4f1c40bba63144f68fd2bb022fb748ab3b61b5411c39bd47430600254600160009054906101000a900460ff1660405161058893929190610d90565b60405180910390a150565b8060078190555050565b600660009054906101000a900473ffffffffffffffffffffffffffffffffffffffff1681565b60018060038111156105fe577f4e487b7100000000000000000000000000000000000000000000000000000000600052602160045260246000fd5b600660149054906101000a900460ff166003811115610646577f4e487b7100000000000000000000000000000000000000000000000000000000600052602160045260246000fd5b14610686576040517f08c379a000000000000000000000000000000000000000000000000000000000815260040161067d90610e1f565b60405180910390fd5b60008060003373ffffffffffffffffffffffffffffffffffffffff1673ffffffffffffffffffffffffffffffffffffffff1681526020019081526020016000205411610707576040517f08c379a00000000000000000000000000000000000000000000000000000000081526004016106fe90610e5f565b60405180910390fd5b60008060003373ffffffffffffffffffffffffffffffffffffffff1673ffffffffffffffffffffffffffffffffffffffff16815260200190815260200160002054905060008060003373ffffffffffffffffffffffffffffffffffffffff1673ffffffffffffffffffffffffffffffffffffffff168152602001908152602001600020819055503373ffffffffffffffffffffffffffffffffffffffff166108fc829081150290604051600060405180830381858888f1935050505061080b57806000803373ffffffffffffffffffffffffffffffffffffffff1673ffffffffffffffffffffffffffffffffffffffff168152602001908152602001600020819055505b5050565b60006020528060005260406000206000915090505481565b6000600554610834610bdf565b10905090565b60055481565b600160009054906101000a900460ff1681565b60045481565b600660149054906101000a900460ff1681565b60008060038111156108a7577f4e487b7100000000000000000000000000000000000000000000000000000000600052602160045260246000fd5b600660149054906101000a900460ff1660038111156108ef577f4e487b7100000000000000000000000000000000000000000000000000000000600052602160045260246000fd5b1461092f576040517f08c379a000000000000000000000000000000000000000000000000000000000815260040161092690610e1f565b60405180910390fd5b610937610827565b610976576040517f08c379a000000000000000000000000000000000000000000000000000000000815260040161096d90610e3f565b60405180910390fd5b346000803373ffffffffffffffffffffffffffffffffffffffff1673ffffffffffffffffffffffffffffffffffffffff16815260200190815260200160002060008282546109c49190610ed6565b9250508190555034600260008282546109dd9190610ed6565b9250508190555060045460025410610a0a5760018060006101000a81548160ff0219169083151502179055505b50565b60025481565b6002806003811115610a4e577f4e487b7100000000000000000000000000000000000000000000000000000000600052602160045260246000fd5b600660149054906101000a900460ff166003811115610a96577f4e487b7100000000000000000000000000000000000000000000000000000000600052602160045260246000fd5b14610ad6576040517f08c379a0000000000000000000000000000000000000000000000000000000008152600401610acd90610e1f565b60405180910390fd5b600660009054906101000a900473ffffffffffffffffffffffffffffffffffffffff1673ffffffffffffffffffffffffffffffffffffffff166108fc6002549081150290604051600060405180830381858888f1935050505015610b8a576003600660146101000a81548160ff02191690836003811115610b80577f4e487b7100000000000000000000000000000000000000000000000000000000600052602160045260246000fd5b0217905550610bdc565b6001600660146101000a81548160ff02191690836003811115610bd6577f4e487b7100000000000000000000000000000000000000000000000000000000600052602160045260246000fd5b02179055505b50565b6000600754905090565b600081359050610bf8816111b2565b92915050565b600081359050610c0d816111c9565b92915050565b600060208284031215610c2557600080fd5b6000610c3384828501610be9565b91505092915050565b600060208284031215610c4e57600080fd5b6000610c5c84828501610bfe565b91505092915050565b610c6e81610f3e565b82525050565b610c7d81610f2c565b82525050565b610c8c81610f50565b82525050565b610c9b81610f99565b82525050565b6000610cac82610eba565b610cb68185610ec5565b9350610cc6818560208601610fab565b610ccf8161109d565b840191505092915050565b6000610ce7600d83610ec5565b9150610cf2826110ae565b602082019050919050565b6000610d0a602383610ec5565b9150610d15826110d7565b604082019050919050565b6000610d2d601783610ec5565b9150610d3882611126565b602082019050919050565b6000610d50602883610ec5565b9150610d5b8261114f565b604082019050919050565b610d6f81610f8f565b82525050565b6000602082019050610d8a6000830184610c65565b92915050565b6000606082019050610da56000830186610c74565b610db26020830185610d66565b610dbf6040830184610c83565b949350505050565b6000602082019050610ddc6000830184610c83565b92915050565b6000602082019050610df76000830184610c92565b92915050565b60006020820190508181036000830152610e178184610ca1565b905092915050565b60006020820190508181036000830152610e3881610cda565b9050919050565b60006020820190508181036000830152610e5881610cfd565b9050919050565b60006020820190508181036000830152610e7881610d20565b9050919050565b60006020820190508181036000830152610e9881610d43565b9050919050565b6000602082019050610eb46000830184610d66565b92915050565b600081519050919050565b600082825260208201905092915050565b6000610ee182610f8f565b9150610eec83610f8f565b9250827fffffffffffffffffffffffffffffffffffffffffffffffffffffffffffffffff03821115610f2157610f20611010565b5b828201905092915050565b6000610f3782610f6f565b9050919050565b6000610f4982610f6f565b9050919050565b60008115159050919050565b6000819050610f6a8261119e565b919050565b600073ffffffffffffffffffffffffffffffffffffffff82169050919050565b6000819050919050565b6000610fa482610f5c565b9050919050565b60005b83811015610fc9578082015181840152602081019050610fae565b83811115610fd8576000848401525b50505050565b60006002820490506001821680610ff657607f821691505b6020821081141561100a5761100961106e565b5b50919050565b7f4e487b7100000000000000000000000000000000000000000000000000000000600052601160045260246000fd5b7f4e487b7100000000000000000000000000000000000000000000000000000000600052602160045260246000fd5b7f4e487b7100000000000000000000000000000000000000000000000000000000600052602260045260246000fd5b6000601f19601f8301169050919050565b7f496e76616c696420737461746500000000000000000000000000000000000000600082015250565b7f4e6f20636f6e747269627574696f6e732061667465722074686520646561646c60008201527f696e650000000000000000000000000000000000000000000000000000000000602082015250565b7f4e6f7468696e672077617320636f6e7472696275746564000000000000000000600082015250565b7f43616e6e6f742066696e6973682063616d706169676e206265666f726520612060008201527f646561646c696e65000000000000000000000000000000000000000000000000602082015250565b600481106111af576111ae61103f565b5b50565b6111bb81610f2c565b81146111c657600080fd5b50565b6111d281610f8f565b81146111dd57600080fd5b5056fea264697066735822122049b8a3fd3800ef9a5e0b9e4f7fe9bdd450e8960c985dfbb57752b86c0dd70fd064736f6c63430008040033",
  "deployedBytecode": "0x6080604052600436106100dd5760003560e01c8063796b23bb1161007f578063c19d93fb11610059578063c19d93fb14610278578063d7bb99ba146102a3578063e29eb836146102ad578063e5225381146102d8576100dd565b8063796b23bb146101f757806384bcefd414610222578063953b8fb81461024d576100dd565b806338af3eed116100bb57806338af3eed1461014d5780633ccfd60b1461017857806355a3b2c11461018f57806368bc0041146101cc576100dd565b806306fdde03146100e2578063083dca111461010d57806322f8e56614610124575b600080fd5b3480156100ee57600080fd5b506100f76102ef565b6040516101049190610dfd565b60405180910390f35b34801561011957600080fd5b5061012261037d565b005b34801561013057600080fd5b5061014b60048036038101906101469190610c3c565b610593565b005b34801561015957600080fd5b5061016261059d565b60405161016f9190610d75565b60405180910390f35b34801561018457600080fd5b5061018d6105c3565b005b34801561019b57600080fd5b506101b660048036038101906101b19190610c13565b61080f565b6040516101c39190610e9f565b60405180910390f35b3480156101d857600080fd5b506101e1610827565b6040516101ee9190610dc7565b60405180910390f35b34801561020357600080fd5b5061020c61083a565b6040516102199190610e9f565b60405180910390f35b34801561022e57600080fd5b50610237610840565b6040516102449190610dc7565b60405180910390f35b34801561025957600080fd5b50610262610853565b60405161026f9190610e9f565b60405180910390f35b34801561028457600080fd5b5061028d610859565b60405161029a9190610de2565b60405180910390f35b6102ab61086c565b005b3480156102b957600080fd5b506102c2610a0d565b6040516102cf9190610e9f565b60405180910390f35b3480156102e457600080fd5b506102ed610a13565b005b600380546102fc90610fde565b80601f016020809104026020016040519081016040528092919081815260200182805461032890610fde565b80156103755780601f1061034a57610100808354040283529160200191610375565b820191906000526020600020905b81548152906001019060200180831161035857829003601f168201915b505050505081565b60008060038111156103b8577f4e487b7100000000000000000000000000000000000000000000000000000000600052602160045260246000fd5b600660149054906101000a900460ff166003811115610400577f4e487b7100000000000000000000000000000000000000000000000000000000600052602160045260246000fd5b14610440576040517f08c379a000000000000000000000000000000000000000000000000000000000815260040161043790610e1f565b60405180910390fd5b610448610827565b15610488576040517f08c379a000000000000000000000000000000000000000000000000000000000815260040161047f90610e7f565b60405180910390fd5b600160009054906101000a900460ff166104f2576001600660146101000a81548160ff021916908360038111156104e8577f4e487b7100000000000000000000000000000000000000000000000000000000600052602160045260246000fd5b0217905550610544565b6002600660146101000a81548160ff0219169083600381111561053e577f4e487b7100000000000000000000000000000000000000000000000000000000600052602160045260246000fd5b02179055505b7f6fa7e87ebbd87ed4f1c40bba63144f68fd2bb022fb748ab3b61b5411c39bd47430600254600160009054906101000a900460ff1660405161058893929190610d90565b60405180910390a150565b8060078190555050565b600660009054906101000a900473ffffffffffffffffffffffffffffffffffffffff1681565b60018060038111156105fe577f4e487b7100000000000000000000000000000000000000000000000000000000600052602160045260246000fd5b600660149054906101000a900460ff166003811115610646577f4e487b7100000000000000000000000000000000000000000000000000000000600052602160045260246000fd5b14610686576040517f08c379a000000000000000000000000000000000000000000000000000000000815260040161067d90610e1f565b60405180910390fd5b60008060003373ffffffffffffffffffffffffffffffffffffffff1673ffffffffffffffffffffffffffffffffffffffff1681526020019081526020016000205411610707576040517f08c379a00000000000000000000000000000000000000000000000000000000081526004016106fe90610e5f565b60405180910390fd5b60008060003373ffffffffffffffffffffffffffffffffffffffff1673ffffffffffffffffffffffffffffffffffffffff16815260200190815260200160002054905060008060003373ffffffffffffffffffffffffffffffffffffffff1673ffffffffffffffffffffffffffffffffffffffff168152602001908152602001600020819055503373ffffffffffffffffffffffffffffffffffffffff166108fc829081150290604051600060405180830381858888f1935050505061080b57806000803373ffffffffffffffffffffffffffffffffffffffff1673ffffffffffffffffffffffffffffffffffffffff168152602001908152602001600020819055505b5050565b60006020528060005260406000206000915090505481565b6000600554610834610bdf565b10905090565b60055481565b600160009054906101000a900460ff1681565b60045481565b600660149054906101000a900460ff1681565b60008060038111156108a7577f4e487b7100000000000000000000000000000000000000000000000000000000600052602160045260246000fd5b600660149054906101000a900460ff1660038111156108ef577f4e487b7100000000000000000000000000000000000000000000000000000000600052602160045260246000fd5b1461092f576040517f08c379a000000000000000000000000000000000000000000000000000000000815260040161092690610e1f565b60405180910390fd5b610937610827565b610976576040517f08c379a000000000000000000000000000000000000000000000000000000000815260040161096d90610e3f565b60405180910390fd5b346000803373ffffffffffffffffffffffffffffffffffffffff1673ffffffffffffffffffffffffffffffffffffffff16815260200190815260200160002060008282546109c49190610ed6565b9250508190555034600260008282546109dd9190610ed6565b9250508190555060045460025410610a0a5760018060006101000a81548160ff0219169083151502179055505b50565b60025481565b6002806003811115610a4e577f4e487b7100000000000000000000000000000000000000000000000000000000600052602160045260246000fd5b600660149054906101000a900460ff166003811115610a96577f4e487b7100000000000000000000000000000000000000000000000000000000600052602160045260246000fd5b14610ad6576040517f08c379a0000000000000000000000000000000000000000000000000000000008152600401610acd90610e1f565b60405180910390fd5b600660009054906101000a900473ffffffffffffffffffffffffffffffffffffffff1673ffffffffffffffffffffffffffffffffffffffff166108fc6002549081150290604051600060405180830381858888f1935050505015610b8a576003600660146101000a81548160ff02191690836003811115610b80577f4e487b7100000000000000000000000000000000000000000000000000000000600052602160045260246000fd5b0217905550610bdc565b6001600660146101000a81548160ff02191690836003811115610bd6577f4e487b7100000000000000000000000000000000000000000000000000000000600052602160045260246000fd5b02179055505b50565b6000600754905090565b600081359050610bf8816111b2565b92915050565b600081359050610c0d816111c9565b92915050565b600060208284031215610c2557600080fd5b6000610c3384828501610be9565b91505092915050565b600060208284031215610c4e57600080fd5b6000610c5c84828501610bfe565b91505092915050565b610c6e81610f3e565b82525050565b610c7d81610f2c565b82525050565b610c8c81610f50565b82525050565b610c9b81610f99565b82525050565b6000610cac82610eba565b610cb68185610ec5565b9350610cc6818560208601610fab565b610ccf8161109d565b840191505092915050565b6000610ce7600d83610ec5565b9150610cf2826110ae565b602082019050919050565b6000610d0a602383610ec5565b9150610d15826110d7565b604082019050919050565b6000610d2d601783610ec5565b9150610d3882611126565b602082019050919050565b6000610d50602883610ec5565b9150610d5b8261114f565b604082019050919050565b610d6f81610f8f565b82525050565b6000602082019050610d8a6000830184610c65565b92915050565b6000606082019050610da56000830186610c74565b610db26020830185610d66565b610dbf6040830184610c83565b949350505050565b6000602082019050610ddc6000830184610c83565b92915050565b6000602082019050610df76000830184610c92565b92915050565b60006020820190508181036000830152610e178184610ca1565b905092915050565b60006020820190508181036000830152610e3881610cda565b9050919050565b60006020820190508181036000830152610e5881610cfd565b9050919050565b60006020820190508181036000830152610e7881610d20565b9050919050565b60006020820190508181036000830152610e9881610d43565b9050919050565b6000602082019050610eb46000830184610d66565b92915050565b600081519050919050565b600082825260208201905092915050565b6000610ee182610f8f565b9150610eec83610f8f565b9250827fffffffffffffffffffffffffffffffffffffffffffffffffffffffffffffffff03821115610f2157610f20611010565b5b828201905092915050565b6000610f3782610f6f565b9050919050565b6000610f4982610f6f565b9050919050565b60008115159050919050565b6000819050610f6a8261119e565b919050565b600073ffffffffffffffffffffffffffffffffffffffff82169050919050565b6000819050919050565b6000610fa482610f5c565b9050919050565b60005b83811015610fc9578082015181840152602081019050610fae565b83811115610fd8576000848401525b50505050565b60006002820490506001821680610ff657607f821691505b6020821081141561100a5761100961106e565b5b50919050565b7f4e487b7100000000000000000000000000000000000000000000000000000000600052601160045260246000fd5b7f4e487b7100000000000000000000000000000000000000000000000000000000600052602160045260246000fd5b7f4e487b7100000000000000000000000000000000000000000000000000000000600052602260045260246000fd5b6000601f19601f8301169050919050565b7f496e76616c696420737461746500000000000000000000000000000000000000600082015250565b7f4e6f20636f6e747269627574696f6e732061667465722074686520646561646c60008201527f696e650000000000000000000000000000000000000000000000000000000000602082015250565b7f4e6f7468696e672077617320636f6e7472696275746564000000000000000000600082015250565b7f43616e6e6f742066696e6973682063616d706169676e206265666f726520612060008201527f646561646c696e65000000000000000000000000000000000000000000000000602082015250565b600481106111af576111ae61103f565b5b50565b6111bb81610f2c565b81146111c657600080fd5b50565b6111d281610f8f565b81146111dd57600080fd5b5056fea264697066735822122049b8a3fd3800ef9a5e0b9e4f7fe9bdd450e8960c985dfbb57752b86c0dd70fd064736f6c63430008040033",
  "immutableReferences": {},
  "source": "// SPDX-License-Identifier: MIT\r\npragma solidity ^0.8.4;\r\nimport \"./CrowdFunding.sol\";\r\n\r\ncontract TestCrowdFundingWithDeadline is CrowdFundingWithDeadline {\r\n    \r\n    uint time;\r\n\r\n    constructor(\r\n        string memory contractName,\r\n        uint targetAmountEth,\r\n        uint durationInMin,\r\n        address payable beneficiaryAddress\r\n    ) CrowdFundingWithDeadline(contractName, targetAmountEth, durationInMin, beneficiaryAddress) public {\r\n\r\n    }\r\n\r\n    function currentTime() override internal view returns (uint) {\r\n        return time;\r\n    }\r\n\r\n    function setCurrentTime(uint newTime) public {\r\n        time = newTime;\r\n    }\r\n}",
  "sourcePath": "C:/Users/Fauzi/Desktop/Projects/CrowdFunding/contracts/TestCrowdFundingWithDeadline.sol",
  "compiler": {
    "name": "solc",
    "version": "0.8.4+commit.c7e474f2.Emscripten.clang"
  },
  "schemaVersion": "3.4.1",
  "updatedAt": "2021-05-26T21:31:35.347Z",
  "devdoc": {
    "kind": "dev",
    "methods": {},
    "version": 1
  },
  "userdoc": {
    "kind": "user",
    "methods": {},
    "version": 1
  }
}