{
  "contractName": "Utils",
  "abi": [
    {
      "inputs": [
        {
          "internalType": "uint256",
          "name": "sumInEth",
          "type": "uint256"
        }
      ],
      "name": "etherToWei",
      "outputs": [
        {
          "internalType": "uint256",
          "name": "",
          "type": "uint256"
        }
      ],
      "stateMutability": "pure",
      "type": "function"
    },
    {
      "inputs": [
        {
          "internalType": "uint256",
          "name": "timeInMin",
          "type": "uint256"
        }
      ],
      "name": "minutesToSeconds",
      "outputs": [
        {
          "internalType": "uint256",
          "name": "",
          "type": "uint256"
        }
      ],
      "stateMutability": "pure",
      "type": "function"
    }
  ],
  "bytecode": "0x610220610053600b82828239805160001a607314610046577f4e487b7100000000000000000000000000000000000000000000000000000000600052600060045260246000fd5b30600052607381538281f3fe73000000000000000000000000000000000000000030146080604052600436106100405760003560e01c8063529b380f14610045578063d8916bb914610075575b600080fd5b61005f600480360381019061005a91906100ed565b6100a5565b60405161006c9190610125565b60405180910390f35b61008f600480360381019061008a91906100ed565b6100bb565b60405161009c9190610125565b60405180910390f35b6000603c826100b49190610140565b9050919050565b6000670de0b6b3a7640000826100d19190610140565b9050919050565b6000813590506100e7816101d3565b92915050565b6000602082840312156100ff57600080fd5b600061010d848285016100d8565b91505092915050565b61011f8161019a565b82525050565b600060208201905061013a6000830184610116565b92915050565b600061014b8261019a565b91506101568361019a565b9250817fffffffffffffffffffffffffffffffffffffffffffffffffffffffffffffffff048311821515161561018f5761018e6101a4565b5b828202905092915050565b6000819050919050565b7f4e487b7100000000000000000000000000000000000000000000000000000000600052601160045260246000fd5b6101dc8161019a565b81146101e757600080fd5b5056fea2646970667358221220bb1d873adf303dc3ca7ad2db7ca6e5723d4b673e690123573d3317edf32c414d64736f6c63430008040033",
  "immutableReferences": {},
  "source": "// SPDX-License-Identifier: MIT\r\npragma solidity >=0.4.22 <0.9.0;\r\n\r\nlibrary Utils {\r\n\r\n    function etherToWei(uint sumInEth) public pure returns(uint) {\r\n        return sumInEth * 1 ether;\r\n    }\r\n\r\n    function minutesToSeconds(uint timeInMin) public pure returns(uint) {\r\n        return timeInMin * 1 minutes;\r\n    }   \r\n}",
  "sourcePath": "C:\\Users\\Fauzi\\Desktop\\Projects\\CrowdFunding\\contracts\\Utils.sol",
  "compiler": {
    "name": "solc",
    "version": "0.8.4+commit.c7e474f2.Emscripten.clang"
  },
  "schemaVersion": "3.4.1",
  "updatedAt": "2021-05-26T21:31:35.351Z",
  "devdoc": {
    "kind": "dev",
    "methods": {},
    "version": 1
  },
  "userdoc": {
    "kind": "user",
    "methods": {},
    "version": 1
  }
}